:020000040800F2
:1000000068060020CD010008D1010008D3010008D6
:10001000D5010008D7010008D90100080000000040
:10002000000000000000000000000000DB010008EC
:10003000DD01000800000000DF010008E101000808
:10004000E3010008E3010008E3010008E301000800
:10005000E3010008E3010008E3010008E3010008F0
:10006000E3010008E3010008DD020008E3010008E5
:10007000E3010008E3010008E3010008E3010008D0
:10008000E3010008E3010008E3010008E3010008C0
:10009000E3010008E3010008E3010008E3010008B0
:1000A000E3010008E3010008E3010008E3010008A0
:1000B000E3010008E3010008E3010008E301000890
:1000C000E3010008E3010008E3010008E301000880
:1000D000E3010008E3010008E3010008E301000870
:1000E000E3010008E3010008E3010008E301000860
:1000F000E3010008E3010008E3010008E301000850
:10010000E3010008E3010008E3010008E30100083F
:10011000E3010008E3010008E3010008E30100082F
:10012000E3010008E3010008E3010008E30100081F
:1001300000F002F800F03AF80AA090E8000C8244BF
:100140008344AAF10107DA4501D100F02FF8AFF29C
:10015000090EBAE80F0013F0010F18BFFB1A43F0A5
:1001600001031847B8030000D8030000103A24BF69
:1001700078C878C1FAD8520724BF30C830C144BF0C
:1001800004680C607047000000230024002500264E
:10019000103A28BF78C1FBD8520728BF30C148BFEA
:1001A0000B6070471FB51FBD10B510BD00F02DF8D6
:1001B0001146FFF7F7FF00F073F900F04BF803B4B6
:1001C000FFF7F2FF03BC00F053F8000008480047B7
:1001D000FEE7FEE7FEE7FEE7FEE7FEE7FEE7FEE7F7
:1001E000FEE7FEE703480449044A054B7047000058
:1001F0003101000868000020680600206802002025
:1002000068020020704770477047754600F02CF870
:10021000AE4605006946534620F00700854618B0F3
:1002200020B5FFF7DFFFBDE820404FF000064FF09C
:1002300000074FF000084FF0000B21F00701AC461B
:10024000ACE8C009ACE8C009ACE8C009ACE8C0093A
:100250008D46704710B50446AFF300802046BDE8D8
:100260001040FFF7ACBF00000048704704000020BA
:1002700001491820ABBEFEE726000200704700B51A
:10028000034603E04FF47A7000F006F8181EA3F15D
:1002900001018BB2F6D100BD00EBC001C9004FF0E7
:1002A000E02251611146096941F00501116100BF69
:1002B0004FF0E021096901F4803131B94FF0E021BC
:1002C000096901F001010029F2D14FF0E02109692B
:1002D00021F001014FF0E0221161704710B509488B
:1002E000006840F01000074908600120FFF7C7FFD1
:1002F0000548006800F0100018B12021034800F004
:10030000BFF810BD1404014008180140000C014062
:1003100010B53148C06940F040002F49C861084617
:10032000806940F0010088612C48006820F440306A
:100330002A4908600846006840F400200860084622
:10034000006820F48020086024480C30006840F0E9
:10035000100022490C3108602148C06840F00401B7
:100360001F48C1601F48006840F010001D49086028
:100370001C480838006840F010001A490839086025
:1003800003200246184B19684FF6FF031940174B1C
:100390000B4343EA0221144B196000BF0A200321DA
:1003A000002808DA0A07140E0F4A0C3200F00F0377
:1003B0001B1FD45403E00A07130E0D4A135400BF49
:1003C0000A20012181404209920002F1E022C2F894
:1003D000001100BF10BD00000010024000180140D5
:1003E00000000140080401400CED00E00000FA05A7
:1003F00000E400E000B51248806940F04800104970
:1004000088611048006820F440000E4908600846E2
:10041000006840F4401008600B48006820F4400079
:10042000094908600846006840F44010086020212F
:10043000044800F00BF82021034800F007F800BD45
:1004400000100240000C014000180140C2680A433D
:10045000C260704770B504460D461646002308E09A
:1004600035F8131054F82320D068FFF7EFFF581C1D
:10047000C3B2B342F4DB70BDC2688A43C260704746
:1004800010B503460C46D868204020B921461846CE
:10049000FFF7DCFF03E021461846FFF7EDFF10BD34
:1004A0000EB5FFF7A7FFFFF733FF0225164903C973
:1004B000CDE90101144808300068009023E013489A
:1004C0000078D8B1002416E03DF8141001AA52F8C3
:1004D0002400FFF7D1FF0A20FFF7D1FE3DF81410EA
:1004E00001AA52F82400FFF7B1FF0848007800B9CC
:1004F00003E0601CC4B2AC42E6DB04E02A46694675
:1005000001A8FFF7A7FFDAE71005000800000020A8
:10051000000C014000180140200020003C050008AC
:1005200000000020040000006C01000840050008E5
:10053000040000206406000088010008000000009C
:04000005080001CD21
:00000001FF
