:020000040800F2
:1000000060060020B1010008B5010008B701000832
:10001000B9010008BB010008BD0100080000000094
:10002000000000000000000000000000BF01000808
:10003000C101000800000000C3010008C50100085C
:10004000C7010008C7010008C7010008C701000870
:10005000C7010008C7010008C7010008C701000860
:10006000C7010008C7010008C7010008C701000850
:10007000C7010008C7010008C7010008C701000840
:10008000C7010008C7010008C7010008C701000830
:10009000C7010008C7010008C7010008C701000820
:1000A000C7010008C7010008C7010008C701000810
:1000B000C7010008C7010008C7010008C701000800
:1000C000C7010008C7010008C7010008C7010008F0
:1000D000C7010008C7010008C7010008C7010008E0
:1000E000C7010008C7010008C7010008C7010008D0
:1000F000C7010008C7010008C7010008C7010008C0
:10010000C7010008C7010008C7010008C7010008AF
:10011000C7010008C7010008C7010008C70100089F
:10012000C7010008C7010008C7010008C70100088F
:1001300000F002F800F02CF80AA090E8000C8244CD
:100140008344AAF10107DA4501D100F021F8AFF2AA
:10015000090EBAE80F0013F0010F18BFFB1A43F0A5
:1001600001031847080200001802000000230024C1
:1001700000250026103A28BF78C1FBD8520728BFB7
:1001800030C148BF0B6070471FB51FBD10B510BD13
:1001900000F02DF81146FFF7F7FF00F08BF800F0A4
:1001A0004BF803B4FFF7F2FF03BC00F053F8000074
:1001B00008480047FEE7FEE7FEE7FEE7FEE7FEE74A
:1001C000FEE7FEE7FEE7FEE703480449044A054B65
:1001D0007047000031010008600000206006002028
:1001E000600200206002002070477047704775462B
:1001F00000F02CF8AE4605006946534620F0070093
:10020000854618B020B5FFF7DFFFBDE820404FF06E
:1002100000064FF000074FF000084FF0000B21F0F0
:100220000701AC46ACE8C009ACE8C009ACE8C009BD
:10023000ACE8C0098D46704710B50446AFF30080A6
:100240002046BDE81040FFF7ACBF000000487047F3
:100250000000002001491820ABBEFEE72600020086
:10026000704700B5034603E04FF4FA7000F006F85B
:10027000181EA3F101018BB2F6D100BD00EBC00145
:10028000C9004FF0E02251611146096941F00501B2
:10029000116100BF4FF0E021096901F480310029AC
:1002A000F8D04FF0E021096921F001014FF0E02280
:1002B000116170472A48806940F0480028498861E8
:1002C0002848006820F44000264908600846006875
:1002D00040F4401008602448006820F4400022499F
:1002E00008600846006840F4401008601D480C3063
:1002F000006840F020001B490C3108601A480C309F
:10030000006840F0200018490C31086027E01548CB
:100310000C30006820F0200012490C3108604FF4C6
:10032000FA70FFF79EFF0F480C30006840F0200085
:100330000C490C3108600C480C30006820F020009B
:1003400009490C3108604FF4FA70FFF78AFF06483C
:100350000C30006840F0200003490C310860D6E7FB
:1003600000100240000C0140001801407C0300080E
:0C03700000000020600600006C01000886
:04000005080001B13D
:00000001FF
