:020000040800F2
:1000000060060020B1010008B5010008B701000832
:10001000B9010008BB010008BD0100080000000094
:10002000000000000000000000000000BF01000808
:10003000C101000800000000C3010008C50100085C
:10004000C7010008C7010008C7010008C701000870
:10005000C7010008C7010008C7010008C701000860
:10006000C7010008C7010008B5020008C701000861
:10007000C7010008C7010008C7010008C701000840
:10008000C7010008C7010008C7010008C701000830
:10009000C7010008C7010008C7010008C701000820
:1000A000C7010008C7010008C7010008C701000810
:1000B000C7010008C7010008C7010008C701000800
:1000C000C7010008C7010008C7010008C7010008F0
:1000D000C7010008C7010008C7010008C7010008E0
:1000E000C7010008C7010008C7010008C7010008D0
:1000F000C7010008C7010008C7010008C7010008C0
:10010000C7010008C7010008C7010008C7010008AF
:10011000C7010008C7010008C7010008C70100089F
:10012000C7010008C7010008C7010008C70100088F
:1001300000F002F800F02CF80AA090E8000C8244CD
:100140008344AAF10107DA4501D100F021F8AFF2AA
:10015000090EBAE80F0013F0010F18BFFB1A43F0A5
:1001600001031847B0020000C00200000023002471
:1001700000250026103A28BF78C1FBD8520728BFB7
:1001800030C148BF0B6070471FB51FBD10B510BD13
:1001900000F02DF81146FFF7F7FF00F027F900F007
:1001A0004BF803B4FFF7F2FF03BC00F053F8000074
:1001B00008480047FEE7FEE7FEE7FEE7FEE7FEE74A
:1001C000FEE7FEE7FEE7FEE703480449044A054B65
:1001D0007047000031010008600000206006002028
:1001E000600200206002002070477047704775462B
:1001F00000F02CF8AE4605006946534620F0070093
:10020000854618B020B5FFF7DFFFBDE820404FF06E
:1002100000064FF000074FF000084FF0000B21F0F0
:100220000701AC46ACE8C009ACE8C009ACE8C009BD
:10023000ACE8C0098D46704710B50446AFF30080A6
:100240002046BDE81040FFF7ACBF000000487047F3
:100250000000002001491820ABBEFEE72600020086
:10026000704700B5034603E04FF47A7000F006F8DB
:10027000181EA3F101018BB2F6D100BD00EBC00145
:10028000C9004FF0E02251611146096941F00501B2
:10029000116100BF4FF0E021096901F480310029AC
:1002A000F8D04FF0E021096921F001014FF0E02280
:1002B0001161704710B50948006840F01000074907
:1002C00008600A20FFF7CDFF0548006800F0100025
:1002D00018B12021034800F00FF810BD14040140AC
:1002E00008180140000C0140C2680A43C260704710
:1002F000C2688A43C260704710B503460C46D8688E
:10030000204020B921461846FFF7EEFF03E02146C2
:100310001846FFF7EDFF10BD2348806940F0040048
:10032000214988610846806940F4804088611F48FF
:10033000006840F030001D4908600846006840F041
:10034000800008600846006820F040000860084609
:10035000006820F4407008600846006820F40060DF
:1003600008600846006840F48060086040F2712030
:100370000F490880081D008842F20C0108430C490F
:10038000091D08800846008820F48050088008462F
:10039000008820F480600880081D008820F4405008
:1003A000091D088070470000001002400408014049
:1003B0000838014000BF0548008800F020000028F0
:1003C000F9D00248001D0088C0B2704700380140D3
:1003D00000BF0549098801F080010029F9D00249D0
:1003E000091D08807047000000380140FFF794FFA6
:1003F0006120FFF7EDFF7420FFF7EAFF0A20FFF707
:10040000E7FF06E0FFF7D6FF04462046FFF7E0FFD0
:1004100000BFF7E724040008000000206006000089
:040420006C01000863
:04000005080001B13D
:00000001FF
