:020000040800F2
:1000000060060020B1010008B5010008B701000832
:10001000B9010008BB010008BD0100080000000094
:10002000000000000000000000000000BF01000808
:10003000C101000800000000C3010008C50100085C
:10004000C7010008C7010008C7010008C701000870
:10005000C7010008C7010008C7010008C701000860
:10006000C7010008C7010008F1020008C701000825
:10007000C7010008C7010008C7010008C701000840
:10008000C7010008C7010008C7010008C701000830
:10009000C7010008C7010008C7010008C701000820
:1000A000C7010008C7010008C7010008C701000810
:1000B000C7010008C7010008C7010008C701000800
:1000C000C7010008C7010008C7010008C7010008F0
:1000D000C7010008C7010008C7010008C7010008E0
:1000E000C7010008C7010008C7010008C7010008D0
:1000F000C7010008C7010008C7010008C7010008C0
:10010000C7010008C7010008C7010008C7010008AF
:10011000C7010008C7010008C7010008C70100089F
:10012000C7010008C7010008C7010008C70100088F
:1001300000F002F800F02CF80AA090E8000C8244CD
:100140008344AAF10107DA4501D100F021F8AFF2AA
:10015000090EBAE80F0013F0010F18BFFB1A43F0A5
:10016000010318472C0300003C0300000023002477
:1001700000250026103A28BF78C1FBD8520728BFB7
:1001800030C148BF0B6070471FB51FBD10B510BD13
:1001900000F04CF81146FFF7F7FF00F053F900F0BC
:1001A0006AF803B4FFF7F2FF03BC00F071F8000037
:1001B00008480047FEE7FEE7FEE7FEE7FEE7FEE74A
:1001C000FEE7FEE7FEE7FEE703480449044A054B65
:1001D0007047000031010008600000206006002028
:1001E000600200206002002010B5431C02E010F8FD
:1001F000011B71B18107FAD14FF0013202C88C1A8C
:100200008C4314EAC211F9D0C01A0A0603D0C01EEA
:1002100010BDC01A10BD0A0401D0801E10BD090215
:10022000FCD0401E10BD704770477047754600F007
:100230002BF8AE4605006946534620F00700854678
:1002400018B020B5FFF7C0FFBDE820404FF0000612
:100250004FF000074FF000084FF0000B21F00701AE
:10026000AC46ACE8C009ACE8C009ACE8C009ACE8F1
:10027000C0098D46704710B50446AFF30080204694
:10028000BDE81040FFF78DBF004870470000002018
:1002900001491820ABBEFEE726000200704700B5FA
:1002A000034603E04FF47A7000F006F8181EA3F13D
:1002B00001018BB2F6D100BD00EBC001C9004FF0C7
:1002C000E02251611146096941F00501116100BF49
:1002D0004FF0E021096901F480310029F8D04FF096
:1002E000E021096921F001014FF0E022116170471E
:1002F00010B50948006840F01000074908600A205E
:10030000FFF7CDFF0548006800F0100018B120216C
:10031000034800F00FF810BD140401400818014014
:10032000000C0140C2680A43C2607047C2688A4339
:10033000C260704710B503460C46D868204020B90B
:1003400021461846FFF7EEFF03E021461846FFF767
:10035000EDFF10BD2348806940F004002149886109
:100360000846806940F4804088611F48006840F07A
:1003700030001D4908600846006840F080000860B1
:100380000846006820F0400008600846006820F435
:10039000407008600846006820F400600860084665
:1003A000006840F48060086040F271200F490880C6
:1003B000081D008842F20C0108430C49091D088001
:1003C0000846008820F4805008800846008820F401
:1003D00080600880081D008820F44050091D0880B6
:1003E0007047000000100240040801400838014036
:1003F00000BF0548008800F020000028F9D002481E
:10040000001D0088C0B270470038014000BF054998
:10041000098801F080010029F9D00249091D0880EE
:10042000704700000038014010B503460C4600221A
:1004300004E0985CFFF7EAFF501CC2B2A242F8DB6E
:1004400010BD0000FFF786FF6120FFF7DFFF74207B
:10045000FFF7DCFF0A20FFF7D9FF09A42046FFF7CA
:10046000C3FEC5B229462046FFF7DEFF06E0FFF7D0
:10047000BFFF05462846FFF7C9FF00BFF7E70000AA
:1004800048656C6C6F20576F726C64210A00000025
:10049000A004000800000020600600006C010008B5
:04000005080001B13D
:00000001FF
