:020000040800F2
:1000000060060020B1010008B5010008B701000832
:10001000B9010008BB010008BD0100080000000094
:10002000000000000000000000000000BF01000808
:10003000C101000800000000C3010008C50100085C
:10004000C7010008C7010008C7010008C701000870
:10005000C7010008C7010008C7010008C701000860
:10006000C7010008C7010008C7010008C701000850
:10007000C7010008C7010008C7010008C701000840
:10008000C7010008C7010008C7010008C701000830
:10009000C7010008C7010008C7010008C701000820
:1000A000C7010008C7010008C7010008C701000810
:1000B000C7010008C7010008C7010008C701000800
:1000C000C7010008C7010008C7010008C7010008F0
:1000D000C7010008C7010008C7010008C7010008E0
:1000E000C7010008C7010008C7010008C7010008D0
:1000F000C7010008C7010008C7010008C7010008C0
:10010000C7010008C7010008C7010008C7010008AF
:10011000C7010008C7010008C7010008C70100089F
:10012000C7010008C7010008C7010008C70100088F
:1001300000F002F800F02CF80AA090E8000C8244CD
:100140008344AAF10107DA4501D100F021F8AFF2AA
:10015000090EBAE80F0013F0010F18BFFB1A43F0A5
:1001600001031847100200002002000000230024B1
:1001700000250026103A28BF78C1FBD8520728BFB7
:1001800030C148BF0B6070471FB51FBD10B510BD13
:1001900000F02DF81146FFF7F7FF00F0BFF800F070
:1001A0004BF803B4FFF7F2FF03BC00F053F8000074
:1001B00008480047FEE7FEE7FEE7FEE7FEE7FEE74A
:1001C000FEE7FEE7FEE7FEE703480449044A054B65
:1001D0007047000031010008600000206006002028
:1001E000600200206002002070477047704775462B
:1001F00000F02CF8AE4605006946534620F0070093
:10020000854618B020B5FFF7DFFFBDE820404FF06E
:1002100000064FF000074FF000084FF0000B21F0F0
:100220000701AC46ACE8C009ACE8C009ACE8C009BD
:10023000ACE8C0098D46704710B50446AFF30080A6
:100240002046BDE81040FFF7ACBF000000487047F3
:100250000000002001491820ABBEFEE72600020086
:10026000704700B5034603E04FF47A7000F006F8DB
:10027000181EA3F101018BB2F6D100BD00EBC00145
:10028000C9004FF0E02251611146096941F00501B2
:10029000116100BF4FF0E021096901F480310029AC
:1002A000F8D04FF0E021096921F001014FF0E02280
:1002B0001161704700B51248806940F0480010494C
:1002C00088611048006820F440000E490860084624
:1002D000006840F4401008600B48006820F44000BB
:1002E000094908600846006840F440100860202171
:1002F000044800F00BF82021034800F007F800BD87
:1003000000100240000C014000180140C2680A437E
:10031000C2607047C2688A43C26070470EB5FFF77B
:10032000C9FF1048006802900E49091D03C9CDE9B4
:10033000000116E0002412E002AA32F814105DF861
:100340002400FFF7E7FF3220FFF78BFF02AA32F805
:1003500014105DF82400FFF7D9FF601CC4B2022C12
:10036000EADBE7E76803000820002000000C0140FA
:10037000001801408403000800000020600600000F
:040380006C01000804
:04000005080001B13D
:00000001FF
