:020000040800F2
:1000000060060020B1010008B5010008B701000832
:10001000B9010008BB010008BD0100080000000094
:10002000000000000000000000000000BF01000808
:10003000C101000800000000C3010008C50100085C
:10004000C7010008C7010008C7010008C701000870
:10005000C7010008C7010008C7010008C701000860
:10006000C7010008B5020008E9020008C70100083E
:10007000C7010008C7010008C7010008C701000840
:10008000C7010008C7010008C7010008C701000830
:10009000C7010008C7010008C7010008C701000820
:1000A000C7010008C7010008C7010008C701000810
:1000B000C7010008C7010008C7010008C701000800
:1000C000C7010008C7010008C7010008C7010008F0
:1000D000C7010008C7010008C7010008C7010008E0
:1000E000C7010008C7010008C7010008C7010008D0
:1000F000C7010008C7010008C7010008C7010008C0
:10010000C7010008C7010008C7010008C7010008AF
:10011000C7010008C7010008C7010008C70100089F
:10012000C7010008C7010008C7010008C70100088F
:1001300000F002F800F02CF80AA090E8000C8244CD
:100140008344AAF10107DA4501D100F021F8AFF2AA
:10015000090EBAE80F0013F0010F18BFFB1A43F0A5
:1001600001031847A4030000B40300000023002487
:1001700000250026103A28BF78C1FBD8520728BFB7
:1001800030C148BF0B6070471FB51FBD10B510BD13
:1001900000F02DF81146FFF7F7FF00F0AFF900F07F
:1001A0004BF803B4FFF7F2FF03BC00F053F8000074
:1001B00008480047FEE7FEE7FEE7FEE7FEE7FEE74A
:1001C000FEE7FEE7FEE7FEE703480449044A054B65
:1001D0007047000031010008600000206006002028
:1001E000600200206002002070477047704775462B
:1001F00000F02CF8AE4605006946534620F0070093
:10020000854618B020B5FFF7DFFFBDE820404FF06E
:1002100000064FF000074FF000084FF0000B21F0F0
:100220000701AC46ACE8C009ACE8C009ACE8C009BD
:10023000ACE8C0098D46704710B50446AFF30080A6
:100240002046BDE81040FFF7ACBF000000487047F3
:100250000000002001491820ABBEFEE72600020086
:10026000704700B5034603E04FF47A7000F006F8DB
:10027000181EA3F101018BB2F6D100BD00EBC00145
:10028000C9004FF0E02251611146096941F00501B2
:10029000116100BF4FF0E021096901F480310029AC
:1002A000F8D04FF0E021096921F001014FF0E02280
:1002B0001161704710B50A48006840F0080008490D
:1002C00008600120FFF7CDFF0648006800F0080035
:1002D00020B120210348083800F0E0F810BD0000EC
:1002E000140401400818014010B50948006840F0A6
:1002F0001000074908600120FFF7B3FF05480068B8
:1003000000F0100018B12021034800F0C7F810BD1C
:100310001404014008180140000C014010B53F488A
:10032000C06940F040003D49C8610846806940F01E
:10033000010088613A48006820F44030384908607C
:100340000846006840F4002008600846006820F471
:100350008020086032480C30006840F010003049BE
:100360000C3108602E48006820F440502C49086089
:100370000846006840F4004008600846006820F421
:100380008040086026480C30006840F0080024498E
:100390000C3108602348C06840F004012148C16066
:1003A000806840F480401F4988601F48006840F022
:1003B00010001D4908601C480838006840F0100013
:1003C0001949083908601848006840F008001649C3
:1003D000086015480838006840F0080012490839DC
:1003E000086003200246114B19684FF6FF031940BD
:1003F0000F4B0B4343EA02210C4B196000BF032152
:100400000A2000F067F80A2000F058F803210920BC
:1004100000F060F8092000F051F810BD0010024013
:100420000018014000000140080401400CED00E00C
:100430000000FA0500B51248806940F048001049F4
:1004400088611048006820F440000E4908600846A2
:10045000006840F4401008600B48006820F4400039
:10046000094908600846006840F4401008602021EF
:10047000044800F00BF82021034800F007F800BD05
:1004800000100240000C014000180140C2680A43FD
:10049000C2607047C2688A43C260704710B50346A5
:1004A0000C46D868204020B921461846FFF7EEFFD9
:1004B00003E021461846FFF7EDFF10BD00F01F02D4
:1004C000012191404209920002F1E022C2F800119C
:1004D0007047000010B5002807DA0A07140E054A15
:1004E00000F00F031B1FD45403E00A07130E024A47
:1004F000135410BD18ED00E000E400E0FFF79AFF90
:10050000FFF70CFF00BFFEE7180500080000002001
:08051000600600006C01000808
:04000005080001B13D
:00000001FF
